:020000040800F2
:100000000050002055210008BD150008BF1500084C
:10001000C1150008C3150008C51500080000000040
:10002000000000000000000000000000C7150008EC
:10003000C915000800000000CB150008CD15000808
:1000400099210008992100089921000899210008A8
:100050009921000899210008992100089921000898
:100060009921000899210008992100089921000888
:100070009921000899210008992100089921000878
:100080009921000899210008992100089921000868
:100090009921000899210008992100089921000858
:1000A0009921000899210008992100089921000848
:1000B00099210008D115000899210008992100080C
:1000C0009921000899210008992100089921000828
:1000D0009921000899210008F115000899210008CC
:1000E00099210008992100089921000800000000CA
:1000F0000000000000000000000000000000000000
:0C01000000000000000000005FF808F1A3
:10010C004FF0FF0C1CEAD0521EBF1CEAD15392EAEE
:10011C000C0F93EA0C0F6FD01A4480EA010C4002CA
:10012C0018BF5FEA41211ED04FF0006343EA501024
:10013C0043EA5111A0FB01310CF00040B1F5000F66
:10014C003EBF490041EAD3715B0040EA010062F115
:10015C007F02FD2A1DD8B3F1004F40EBC25008BFFF
:10016C0020F00100704790F0000F0CF0004C08BF1D
:10017C0049024CEA502040EA51207F3AC2BFD2F1EA
:10018C00FF0340EAC250704740F400004FF00003F8
:10019C00013A5DDC12F1190FDCBF00F00040704732
:1001AC00C2F10002410021FA02F1C2F1200200FA70
:1001BC0002FC5FEA310040F1000053EA4C0308BF37
:1001CC0020EADC70704792F0000F00F0004C02BF88
:1001DC00400010F4000F013AF9D040EA0C0093F003
:1001EC00000F01F0004C02BF490011F4000F013B5D
:1001FC00F9D041EA0C018FE70CEAD15392EA0C0FCB
:10020C0018BF93EA0C0F0AD030F0004C18BF31F035
:10021C00004CD8D180EA010000F00040704790F00B
:10022C00000F17BF90F0004F084691F0000F91F0AF
:10023C00004F14D092EA0C0F01D142020FD193EA75
:10024C000C0F03D14B0218BF084608D180EA0100FD
:10025C0000F0004040F0FE4040F40000704740F0D9
:10026C00FE4040F44000704780F0004002E000BFC8
:10027C0081F0004142001FBF5FEA410392EA030F85
:10028C007FEA226C7FEA236C6AD04FEA1262D2EBCF
:10029C001363C1BFD218414048404140B8BF5B42D4
:1002AC00192B88BF704710F0004F40F4000020F06D
:1002BC007F4018BF404211F0004F41F4000121F083
:1002CC007F4118BF494292EA030F3FD0A2F10102CD
:1002DC0041FA03FC10EB0C00C3F1200301FA03F10B
:1002EC0000F0004302D5494260EB4000B0F5000F2E
:1002FC0013D3B0F1807F06D340084FEA310102F1ED
:10030C000102FE2A51D2B1F1004F40EBC25008BF9E
:10031C0020F0010040EA03007047490040EB000068
:10032C00013A28BFB0F5000FEDD2B0FA80FCACF169
:10033C00080CB2EB0C0200FA0CF0AABF00EBC25096
:10034C0052421843BCBFD0401843704792F0000F84
:10035C0081F4000106BF80F400000132013BB5E7D7
:10036C004FEA41037FEA226C18BF7FEA236C21D04D
:10037C0092EA030F04D092F0000F08BF08467047B2
:10038C0090EA010F1CBF0020704712F07F4F04D180
:10039C00400028BF40F00040704712F100723CBF93
:1003AC0000F50000704700F0004343F0FE4040F4BD
:1003BC00000070477FEA226216BF08467FEA23637B
:1003CC000146420206BF5FEA412390EA010F40F466
:1003DC00800070474FF0000304E000BF10F00043B2
:1003EC0048BF40425FEA000C08BF704743F0964399
:1003FC0001464FF000001CE050EA010208BF7047B4
:10040C004FF000030AE000BF50EA010208BF70473A
:10041C0011F0004302D5404261EB41015FEA010C4F
:10042C0002BF84460146002043F0B64308BFA3F147
:10043C008053A3F50003BCFA8CF2083AA3EBC25329
:10044C0010DB01FA02FC634400FA02FCC2F1200248
:10045C00BCF1004F20FA02F243EB020008BF20F07F
:10046C000100704702F1200201FA02FCC2F12002E5
:10047C0050EA4C0021FA02F243EB020008BF20EADA
:10048C00DC7070474FF0FF3C06E000BF4FF0010CF2
:10049C0002E000BF4FF0010C4DF804CD4FEA4002D2
:1004AC004FEA41037FEA226C18BF7FEA236C11D01C
:1004BC0001B052EA530C18BF90EA010F58BFB2EBCF
:1004CC00030088BFC81738BF6FEAE17018BF40F04F
:1004DC00010070477FEA226C02D15FEA402C05D103
:1004EC007FEA236CE4D15FEA412CE1D05DF8040B88
:1004FC00704700BF844608466146FFE70FB5FFF71B
:10050C00C9FF002848BF10F1000F0FBD4DF808EDD2
:10051C00FFF7F4FF0CBF012000205DF808FB00BFC3
:10052C004DF808EDFFF7EAFF34BF012000205DF81D
:10053C0008FB00BF4DF808EDFFF7E0FF94BF01206A
:10054C0000205DF808FB00BF4DF808EDFFF7D2FF67
:10055C0094BF012000205DF808FB00BF4DF808EDAA
:10056C00FFF7C8FF34BF012000205DF808FB00BF77
:10057C004FEA4002B2F1FE4F0FD34FF09E03B3EBA4
:10058C0012620DD94FEA002343F0004310F0004FE4
:10059C0023FA02F018BF404270474FF0000070473A
:1005AC0012F1610F01D1420205D110F0004008BFD9
:1005BC006FF0004070474FF000007047844641EAEE
:1005CC00000313F0030349D1403A23D30B680360B3
:1005DC004B6843608B688360CB68C3600B690361B5
:1005EC004B6943618B698361CB69C3610B6A03629D
:1005FC004B6A43628B6A8362CB6AC3620B6B036385
:10060C004B6B43638B6B8363CB6BC3634030403169
:10061C00403ADBD230320BD30B6803604B6843603B
:10062C008B688360CB68C36010301031103AF3D202
:10063C000C3205D351F8043B40F8043B043AF9D290
:10064C00043208D0D2071CBF11F8013B00F8013B63
:10065C0001D30B8803806046704700BF082A13D370
:10066C008B07B1D010F00303AED0C3F10403D21A40
:10067C00DB071CBF11F8013B00F8013BA4D331F898
:10068C00023B20F8023B9FE7043AD9D3013A11F818
:10069C00013B00F8013BF9D20B7803704B784370A7
:1006AC008B788370604670472DE9F041064608460A
:1006BC0090461F462449FFF723FD4FF07C51FFF76E
:1006CC001FFD044601463046FFF7D2FD0546314674
:1006DC002046FFF7CFFD04464FF07C512846FFF72C
:1006EC003DFF08B14FF07C554FF03F412846FFF7D6
:1006FC0017FF08B14FF03F454FF07C512046FFF7F4
:10070C002DFF08B14FF07C544FF03F412046FFF7CE
:10071C0007FF08B14FF03F4429462846FFF7AAFDD2
:10072C000A49FFF7EDFCFFF723FFA8F8000021466C
:10073C002046FFF79FFD0549FFF7E2FCFFF718FF86
:10074C003880BDE8F08100BF3333B33E00C079443C
:10075C0038B50C46002814DB82B20121002C15DBC5
:10076C00A4B20125092A00D80022092C00D80024A3
:10077C00002000F07DF922462946012000F078F98E
:10078C0038BD82B2524292B20221E7E7A4B264426F
:10079C00A4B20225E6E700002DE9F04F93B000F07B
:1007AC00CDF800F0CBF900F05BFA00F0B3FA00F0F2
:1007BC0031FC00F039FE00230C9302E00C9B01335A
:1007CC000C930C9A5B4B9A42F8DD00F0EBFE58B19F
:1007DC004D21594801F039FC002500263746AB461F
:1007EC00A846A946AA4680E05821534801F02DFCA2
:1007FC00F2E735B1A4EB0B02C82A02D90546002654
:10080C0037460BAA0DF12A010AA800F073FE30B18D
:10081C000023ADF82830ADF82A30ADF82C300FABF2
:10082C000DF12E0231463846FFF73EFFBDF83C1065
:10083C00494209B2ADF83C10BDF92E00FFF788FF14
:10084C00A4EB0A03132B14D8A4EB0903632B41D993
:10085C00002D32D100213846FFF758FE002860D019
:10086C0000213046FFF752FE00285DD14FF00309FE
:10087C0025E01FFA84FA00F057FB059000F05AFBB4
:10088C00069000F045FBFFF7A9FD079000F046FB32
:10089C00FFF7A4FD0346CDF80CA0BDF92C20029265
:1008AC00BDF92A200192BDF928200092079A0699D9
:1008BC00059800F0BDFBA246C6E74FF0030900F017
:1008CC0071FEA0B3002340F6C4120021484600F08C
:1008DC00CDFBA146A4EB0803B3F57A7F02D300F05D
:1008EC00D7FBA046012000F067F900F071F904462F
:1008FC000EAA0DA90DF1270000F0D2FB00283FF441
:10090C0078AF9DF82730812BF2D10FAA0E990D9854
:10091C0000F042FC0028EBD00F9F109EA34601254F
:10092C00E6E74FF00309CAE74FF00009C7E74FF4B9
:10093C008063C8E71FA10700004400402DE9F04187
:10094C0088B001210D2000F0F3FF0121084600F0D2
:10095C00FDFF0121434800F04FFF41F27003ADF859
:10096C001C3003278DF81E7010258DF81F503E4C3F
:10097C0007A9204600F0DCFE0826ADF81C608DF8B7
:10098C001E708DF81F50DFF8E48007A9404600F078
:10099C00CFFE3146404600F02DFF2946204600F0A0
:1009AC0029FF2021204600F025FF4021204600F0A1
:1009BC0021FF4FF48051204600F01CFF0125ADF8BB
:1009CC001C508DF81E7018278DF81F7007A9204633
:1009DC0000F0AEFE0223ADF81C308DF81F7007A995
:1009EC00204600F0A5FE04A801F0B6F94723ADF8A7
:1009FC00103040F2E733ADF814300024ADF812405B
:100A0C0004A94FF0804001F0CBF8684601F0ADF935
:100A1C006023ADF80030ADF80250ADF806406946E1
:100A2C004FF0804001F006F9ADF8064069464FF0F2
:100A3C00804001F045F931464FF0804001F0F2F969
:100A4C0031464FF0804001F0F4F929464FF08040D8
:100A5C0001F0DAF929464FF0804001F098F908B01E
:100A6C00BDE8F0810002300000080140000C01409C
:100A7C0070B504460E461546B2F57A7F01D340F2A6
:100A8C00E7354FF480512B4800F0B2FE0CB1022C2C
:100A9C001AD1012E0BD0022E1BD00821264800F0B3
:100AAC00A9FE1021234800F0A5FE002507E008212F
:100ABC00214800F09DFE10211E4800F09BFE2946A7
:100ACC004FF0804001F0BEF9013CE4B2012C09D991
:100ADC0070BD0821184800F08DFE1021154800F05B
:100AEC0087FEECE7012E0CD0022E19D0114C2021E0
:100AFC00204600F07FFE4021204600F07BFE0025C2
:100B0C0008E00C4C2021204600F072FE40212046CB
:100B1C0000F070FE29464FF0804001F095F9D7E7C0
:100B2C00044C2021204600F065FE4021204600F0B8
:100B3C005FFEEFE700080140000C014008B56FF0C4
:100B4C00040001F0F1FA034B00221A60024B01225F
:100B5C001A7008BD180000201400002010B50446BF
:100B6C00134B1B7833B1134A13682344136004EB03
:100B7C00C40419E0FFF7E2FFF5E76FF07F42A242F1
:100B8C0028BF22464FF0E0235A61002098610120D3
:100B9C0018614FF0E0231B6913F4803FF9D04FF03C
:100BAC00E02300201861A41A002CE6D110BD00BF70
:100BBC00140000201800002010B5044604E04FF487
:100BCC007A70FFF7CBFF013C002CF8D110BD000070
:100BDC00034B1868034BA3FB00308009704700BF20
:100BEC0018000020D34D62100B4B1B6801335A4286
:100BFC00DBB2D2B258BF5342084A12689A4208D0AC
:100C0C0010B4054A1168064C60541360012010BCE6
:100C1C0070470020704700BF1C01002020010020FD
:100C2C001C0000200B4B1A680B4B1B689A420ED011
:100C3C00094A13680949CB5C0370136801335942A4
:100C4C00DBB2C9B258BF4B42136001207047002081
:100C5C00704700BF1C010020200100201C00002058
:100C6C0070B586B000240594019402940394049406
:100C7C0000940121052000F05BFE01214FF40030AF
:100C8C0000F064FE0426ADF8146018238DF81730BC
:100C9C0003238DF816301E4D05A9284600F048FD9B
:100CAC000823ADF814308DF8176005A9284600F01C
:100CBC003FFD4FF4E1330193ADF80840ADF80A4025
:100CCC00ADF80C40ADF810400C23ADF80E30A5F586
:100CDC0044450DEB0601284601F02CF9012240F2A7
:100CEC002551284601F096F926238DF800308DF811
:100CFC0001408DF8024001248DF80340684601F054
:100D0C00E1F92146284601F077F906B070BD00BF25
:100D1C00000801402DE9F04188B0012140F60D009A
:100D2C0000F006FE0121062000F010FE4FF4407387
:100D3C00ADF81C304FF004088DF81F8003268DF899
:100D4C001E6007A9474800F0F3FC04A801F004F862
:100D5C004FF6FF77ADF814700024ADF81040ADF8E5
:100D6C001640ADF81240404D04A9284600F018FF7B
:100D7C00234622463146284601F023F80DEB0800A5
:100D8C0000F0FDFF0DEB0801284601F08FF8012162
:100D9C00284600F0FCFFC023ADF81C308DF81F80F6
:100DAC0007A9324800F0C4FC04A800F0D5FFADF848
:100DBC001470ADF81040ADF81640ADF81240A5F522
:100DCC00923504A9284600F0EBFE23462246314614
:100DDC00284600F0F6FF0DEB080000F0D0FF0DEBFD
:100DEC000801284601F062F80121284600F0CFFFE7
:100DFC0004A800F0B1FF4723ADF8103044F61F6390
:100E0C00ADF81430ADF81240A5F5806504A928465C
:100E1C0000F0C6FE01221146284600F0C6FF012153
:100E2C00284600F0B4FF1D238DF8003001258DF805
:100E3C0001508DF802408DF80350684601F042F9DC
:100E4C000B4B1C600B4B1C600B4B1C600B4B1C604E
:100E5C000B4B1C800B4B1C800B4B1D7008B0BDE862
:100E6C00F08100BF00080140002C0140000C014043
:100E7C0028010020340100202C0100203801002022
:100E8C0026010020300100202401002038B517482D
:100E9C0001F03DF80446164801F039F8154B1B7863
:100EAC00DBB9154D2A88A21A12B214490B88C31A41
:100EBC001BB22C800880322101FB02F41048046024
:100ECC0003FB01F10F4801600F49086802440A60F6
:100EDC000E4A11680B44136038BD074B1C80074B3E
:100EEC001880044B00221A70F6E700BF002C01405A
:100EFC0000080040240100202601002030010020C1
:100F0C0028010020340100202C0100203801002091
:100F1C00014B1868704700BF28010020014B18686E
:100F2C00704700BF34010020014B1868704700BFA8
:100F3C002C010020014B1868704700BF38010020BD
:100F4C0000B586464FF0000C60460FE0400080B2C2
:100F5C000133072B08DC10F4004FF7D041F22102CB
:100F6C0082EA400080B2F3E70CF1010C8C4505DA03
:100F7C001EF80C3080EA03200023EAE75DF804FB3E
:100F8C0008B50146044801F060F88021024801F0E0
:100F9C0064F80028F9D008BD0044004070B506463E
:100FAC000D46002403E0305DFFF7EAFF0134AC424C
:100FBC00F9DB70BD70B51446D51DB5F5847F1FDC0B
:100FCC000432124B5A261E70A5265E709A70D87089
:100FDC000F4A12781A71002C13DC0C4EA11CF01C59
:100FEC00FFF7AEFF631DF0540634C0F307203055F5
:100FFC0029463046FFF7D2FF054A137801331370A8
:10100C0070BD2246581DFFF7D9FAE6E750020020C2
:10101C00580300200023034A1370034A1360034A49
:10102C00136070475803002048020020440200203F
:10103C0000B587B00090019102920393BDF9203066
:10104C00ADF81030BDF92430ADF81230BDF92830B0
:10105C00ADF81430BDF82C30ADF8163018226946B6
:10106C000120FFF7A7FF07B05DF804FB00B583B0C4
:10107C008DF800008DF80110ADF80220ADF80430A9
:10108C00062269460220FFF795FF03B05DF804FBCA
:10109C0008B5002211460620FFF78CFF08BD0000A2
:1010AC002DE9F04782B006460D46924625E09DF8A4
:1010BC0007305A2B21D1344A1370344B01221A6059
:1010CC001BE09DF80730A52B05D05A2B15D02F4BC4
:1010DC0000221A6011E02C4A53702C4B02221A6029
:1010EC000BE09DF80730284A93700133284A1360AF
:1010FC000323284A1360254A13600DF10700FFF7FC
:10110C0091FD034600283AD0204B1B68032BF4D8E2
:10111C0001A252F823F000BFBB100008CF1000084A
:10112C00EF100008351100081A490B685A1C0A60A8
:10113C009DF807001449C854154B1B6802339A429A
:10114C00DBDD124B00221A600B468F7891F803906E
:10115C00B7F10408D1D40C46B91ED81CFFF7F0FE29
:10116C007B1CE35C0237E25D43EA02239842C4D164
:10117C0086F80090631D2B60CAF800800123184686
:10118C0002B0BDE8F08700BF3C01002048020020FF
:10119C004C02002044020020072905DD036813607F
:1011AC0043685360012070470020704782B00023D1
:1011BC00019302E0019B01330193019BB3F5347F52
:1011CC00F8DB02B07047000010B582B00121082096
:1011DC0000F0AEFB4FF44073ADF8043003238DF8F0
:1011EC00063014238DF807300D4C01A9204600F071
:1011FC009FFA4FF48071204600F0FAFA4FF4007118
:10120C00204600F0F5FA0023009302E0009B013326
:10121C000093009A42F20F739A42F7DD02B010BDB0
:10122C00000C014010B50F4C4FF40071204600F03B
:10123C00DFFAFFF7BBFF4FF48071204600F0D8FABD
:10124C00FFF7B4FF4FF40071204600F0D3FAFFF71C
:10125C00ADFF4FF48071204600F0CCFAFFF7A6FFEB
:10126C0010BD00BF000C014010B50B4C4FF40071C9
:10127C00204600F0BFFAFFF799FF4FF4807120462B
:10128C0000F0B6FAFFF792FF4FF40071204600F021
:10129C00AFFAFFF78BFF10BD000C014070B506468E
:1012AC00072416E04FF400711F4800F0A3FAFFF773
:1012BC007DFF1D4D4FF48071284600F099FAFFF721
:1012CC0075FF4FF48071284600F094FAFFF76EFF1B
:1012DC00013C002C0ADB46FA04F313F0010FE1D0B9
:1012EC004FF40071104800F083FAE0E70E4C4FF415
:1012FC000071204600F07CFAFFF758FF4FF4807124
:10130C00204600F075FAFFF751FF4FF400712046AC
:10131C0000F067FA05464FF48071204600F06AFA37
:10132C00FFF744FF284670BD000C014038B5054658
:10133C000C46FFF777FFD020FFF7B0FF2846FFF7EA
:10134C00ADFF2046FFF7AAFFFFF78EFF38BD000068
:10135C00F8B507464FF40071214800F049FA07240C
:10136C00002607E04FF480711D4800F043FAFFF7A8
:10137C001DFF013C002C13DB194D4FF480712846E6
:10138C0000F036FAFFF712FF4FF40071284600F018
:10139C0028FA0028E6D00123A3401E43F6B2E1E769
:1013AC00BFB14FF400710E4800F024FAFFF7FEFEB7
:1013BC000B4C4FF48071204600F01AFAFFF7F6FE42
:1013CC004FF48071204600F015FAFFF7EFFE30461F
:1013DC00F8BD4FF40071024800F00AFAE6E700BFCE
:1013EC00000C014070B504460E461546FFF71AFF77
:1013FC00D020FFF753FF2046FFF750FFFFF712FFF7
:10140C00D120FFF74BFF002408E0681EA042D4BF98
:10141C0000200120FFF79CFF30550134AC42F4DB77
:10142C00FFF722FF70BD000070B588B000242C4B74
:10143C001C602C4B1C80FFF7C7FE019402E0019B43
:10144C0001330193019A284B9A42F8DD00216B205D
:10145C00FFF76CFF0023029302E0029B013302931F
:10146C00029A224B9A42F8DD01220DF11F017520E0
:10147C00FFF7B8FF9DF81F30682B01D008B070BD86
:10148C0000211B20FFF752FF00211C20FFF74EFF0D
:10149C0000242646254614E0039B01330393039A4C
:1014AC00134B9A42F8DD0E2204A93B20FFF79AFF5A
:1014BC009DF81C209DF81D3043EA02231D44013683
:1014CC0001344F2C02DC00230393E8E70A2E03DDE2
:1014DC0095FBF6F5034B1D80014B01221A60CDE7FD
:1014EC005C0300205A0300201FA107007F1A06008E
:1014FC003F0D0300284B1B68002B4AD070B584B0FD
:10150C0006460D4614460E2269463B20FFF76AFF3D
:10151C009DF800301B021BB29DF8011019439DF879
:10152C0002301B021BB29DF803201A439DF80C30AD
:10153C001B021BB29DF80D000343184800881B1AB0
:10154C001BB24FF47A7000FB03F3154880FB03C009
:10155C00DB17C3EB6013338042F24F6301FB03F3E1
:10156C00002B0EDB43F38F332B8042F24F6302FBD5
:10157C0003F3002B09DB43F38F332380002004B0EB
:10158C0070BD03F57F533F33ECE703F57F533F33D7
:10159C00F1E74FF0FF3070475C0300205A03002046
:1015AC003DCB883E014B1868704700BF5C030020A0
:1015BC007047FEE7FEE7FEE7FEE7704770477047AF
:1015CC007047000008B50121054800F0A3FC00B9E4
:1015DC0008BD0121024800F0A9FCFFF757FCF7E712
:1015EC000004004010B540F22551094800F03CFDC4
:1015FC0000B910BD064C204600F02BFDC0B2FFF721
:10160C00F3FA40F22551204600F053FDF1E700BFFC
:10161C000044004082B00023019300932C4A1368CD
:10162C0043F4803313602A4B1B6803F4003300939C
:10163C00019B01330193009B1BB9019BB3F5A06F78
:10164C00F1D1234B1B6813F4003F06D00123009308
:10165C00009B012B04D002B0704700230093F7E7E6
:10166C001C4B1A6842F010021A601A6822F007022A
:10167C001A601A6842F002021A60A3F580535A6885
:10168C005A605A685A605A6842F480625A605A68C2
:10169C0022F47C125A605A6842F4E8125A601A68B2
:1016AC0042F080721A600A4B1B6813F0007FFAD06C
:1016BC00074B5A6822F003025A605A6842F0020241
:1016CC005A60034B5B6803F00C03082BF9D1C2E79B
:1016DC00001002400020024008B5FFF79BFF08BD38
:1016EC0008B5104B1A6842F001021A6059680E4A8C
:1016FC000A405A601A6822F0847222F480321A600E
:10170C001A6822F480221A605A6822F4FE025A6087
:10171C004FF41F029A60FFF7DFFF044B4FF000629B
:10172C009A6008BD001002400000FFF800ED00E0D8
:10173C0030B5CB7803F00F02964613F0100F03D0A0
:10174C0091F802E04EEA020E0B7803B30468002312
:10175C0001E042610133072B18D801229A40B1F8FD
:10176C0000C032EA0C05F5D14FEA830C0F2505FABF
:10177C000CF524EA05040EFA0CFC4CEA0404CD78B2
:10178C00282DE6D0482DE5D10261E3E704600B88F3
:10179C00FF2B25D94468002303E0CD78482D1CD0BD
:1017AC000133072B1BD803F1080C012202FA0CF2AF
:1017BC00B1F800C032EA0C05F2D14FEA830C0F25C8
:1017CC0005FA0CF524EA05040EFA0CFC4CEA0404A8
:1017DC00CD78282DE1D14261DFE70261E0E744607A
:1017EC0030BD8368194201D001207047002070473A
:1017FC00016170474161704710B5002816DB1C4B26
:10180C005B68C0F303421FFA80FE00F4401CBCF579
:10181C00401F0ED010F4801F1DD04FF0030C0CFA9B
:10182C0002F223EA020343F0706309E0104BDB6918
:10183C00E7E723F070630E4C626822F0706262601E
:10184C0021B1420D12010EFA02F2134300280BDBF8
:10185C00074A536010BD420D12010EFA02F223EA40
:10186C00020343F07063EBE7014AD361F2E700BF78
:10187C000000014010B4294B5B6803F00C03042BEF
:10188C002BD0082B2CD013B1254B036001E0244B3B
:10189C00036022494B68C3F30313224CE35CDAB2B6
:1018AC000368D34043604A68C2F30222A25CD2B2FE
:1018BC0023FA02F282604A68C2F3C222A25CD2B25C
:1018CC00D340C3604A68C2F3813217498A5CD2B2F2
:1018DC00B3FBF2F3036110BC7047114B0360D8E704
:1018EC000E4A53685268C3F38343023312F4803FA9
:1018FC0004D10E4A02FB03F30360CAE7074A52689D
:10190C0012F4003F04D0094A02FB03F30360C0E762
:10191C00034A02FB03F30360BBE700BF0010024065
:10192C0000127A00040000200000002000093D0095
:10193C0021B1054A9369184390617047024A936933
:10194C0023EA0000906170470010024021B1054A63
:10195C00D3691843D0617047024AD36923EA000067
:10196C00D06170470010024000B5B0F820E01FFABB
:10197C008EFE2EF0010E1FFA8EFEA0F820E0B0F8BD
:10198C0018C01FFA8CFCB0F820E01FFA8EFE2CF069
:10199C00F30C1B019BB213434CEA030C124A90420A
:1019AC0017D0124B984214D0B0F1804F11D0A3F540
:1019BC00983398420DD003F58063984209D003F513
:1019CC008063984205D02EF00A03194341F00101BF
:1019DC0004E02EF00203194341F00101A0F818C0F5
:1019EC0001845DF804FB00BF002C01400034014071
:1019FC0010B5B0F820C01FFA8CFC2CF0100C1FFA9C
:101A0C008CFCA0F820C0B0F818E0B0F820C01FFA89
:101A1C008CFC0C01A4B22EF4407E4FEA0E5E4FEA11
:101A2C001E5E1B039BB243EA0E03120292B21A43D0
:101A3C00134B984219D003F50063984215D0B0F1BE
:101A4C00804F12D0A3F5983398420ED003F58063E3
:101A5C0098420AD003F58063984206D02CF0A00C73
:101A6C004CEA010C4CF0100C05E02CF0200C4CEA6C
:101A7C00040C4CF0100C0283A0F820C010BD00BF69
:101A8C00002C014030B50C46B0F820C01FFA8CFC7D
:101A9C002CF4807C1FFA8CFCA0F820C0B0F81CE061
:101AAC001FFA8EFE018C89B22502ADB22EF0F30E18
:101ABC001B019BB213434EEA0303124A904219D006
:101ACC0002F50062904215D0B0F1804F12D0A2F511
:101ADC00983290420ED002F5806290420AD002F504
:101AEC008062904206D021F4206C4CEA040141F44F
:101AFC00807104E021F40071294341F480718383E7
:101B0C00018430BD002C014010B5B0F820C01FFA84
:101B1C008CFC2CF4805C1FFA8CFCA0F820C0B0F874
:101B2C001CE0B0F820C01FFA8CFC0C03A4B22EF4FD
:101B3C00407E4FEA0E5E4FEA1E5E120292B242EAFD
:101B4C000E021B039BB21343144A90421DD002F5A4
:101B5C000062904219D0B0F1804F16D0A2F59832A5
:101B6C00904212D002F5806290420ED002F5806253
:101B7C0090420AD02CF4007C4FEA4C4C4FEA5C4C5F
:101B8C0041EA0C0141F4805104E02CF40051214352
:101B9C0041F480518383018410BD00BF002C0140AF
:101BAC0003889BB2214A904212D002F50062904207
:101BBC000ED0B0F1804F0BD0A2F59832904207D0E6
:101BCC0002F58062904203D002F58062904203D10C
:101BDC0023F070034A881343154A904208D002F54B
:101BEC008062904204D023F440739BB2CA881343A2
:101BFC0003808B8883850B8803850C4B98420FD010
:101C0C0003F5006398420BD003F54063984207D06C
:101C1C0003F58063984203D003F58063984201D1A9
:101C2C000B7A038601238382704700BF002C01408E
:101C3C000010004010B4038C9BB223F001039BB244
:101C4C000384038C9BB2B0F804C01FFA8CFC028B8B
:101C5C0092B222F073020C88224323F002030C8907
:101C6C0023434C882343154CA0420FD004F5006449
:101C7C00A0420BD004F54064A04207D004F5806468
:101C8C00A04203D004F58064A0420FD123F00803D6
:101C9C004C89234323F004038C8823432CF4407C8D
:101CAC008C894CEA040CCC8944EA0C0CA0F804C0D6
:101CBC000283CA888286038410BC7047002C0140C2
:101CCC0000B5038C9BB223F010039BB20384038CEE
:101CDC009BB2B0F804E01FFA8EFEB0F818C01FFAE1
:101CEC008CFC2CF4E64C0A88120292B24CEA020CE0
:101CFC0023F020030A89120192B21A434B881B016C
:101D0C009BB21343134A904203D002F500629042F7
:101D1C0017D123F080034A89120192B2134323F0A6
:101D2C0040028B881B019BB213432EF4406E8A89B0
:101D3C00920092B24EEA020ECA89920092B242EA24
:101D4C000E0EA0F804E0A0F818C0CA88028703841D
:101D5C005DF804FB002C01404FF6FF7383800023D9
:101D6C000380C38043800372704700230380438049
:101D7C008380C380038143818381C38170470023A7
:101D8C000380438001228280C3800381704729B184
:101D9C0003889BB243F001030380704703889BB216
:101DAC0023F001039BB20380704722B183899BB25D
:101DBC001943818170478389C94389B21940818154
:101DCC00704710B50489A4B2B0F818C01FFA8CFC87
:101DDC00B0F820E01FFA8EFE24F007040C432CF41C
:101DEC00407C2CF0030C4CF4807C4CF0010C2EF05D
:101DFC00220E1B019BB213434EEA030E0481A0F882
:101E0C0018C0A0F820E010BD29B103889BB243F0A4
:101E1C0080030380704703889BB223F080039BB23E
:101E2C0003807047038B9BB223F008030B4303839F
:101E3C007047038B9BB223F40063090289B20B43F6
:101E4C00038370478186704701877047038B9BB271
:101E5C0023F00C039BB20383038B9BB20B430383D2
:101E6C007047038B9BB223F440639BB20383038BB9
:101E7C009BB2090289B20B4303837047838B9BB2DD
:101E8C0023F00C039BB28383838B9BB20B43838322
:101E9C007047838B9BB223F440639BB28383838B09
:101EAC009BB2090289B20B438383704738B5054650
:101EBC000C460B886BB1042B15D0082B1DD00B894D
:101ECC008A884988FFF720FEE1882846FFF7E1FF62
:101EDC0038BD0B898A884988FFF746FDE18828467A
:101EEC00FFF7B4FFF4E70B898A884988FFF780FD78
:101EFC00E1882846FFF7B5FFEAE70B898A8849880D
:101F0C00FFF7C0FDE1882846FFF7B8FFE0E7808CBB
:101F1C0080B27047028A83890B40114202D01BB9F0
:101F2C00002070470020704701207047C94389B2D8
:101F3C000182704730B587B004460D46038A9BB2C8
:101F4C00CA8823F440531343038283899BB2898844
:101F5C0028896A8901430A4323F4B05323F00C0304
:101F6C001343A381A38A9BB2AA8923F4407313431E
:101F7C00A38201A8FFF77EFC1D4B9C4224D0039B3F
:101F8C00A28912F4004F21D103EB830303EB8303EB
:101F9C002A689200B3FBF2F3164AA2FB0312520911
:101FAC001101642002FB1033A28912F4004F16D1E8
:101FBC001B0132330F4AA2FB0323C3F343130B431E
:101FCC009BB2238107B030BD049BD9E703EB83039D
:101FDC0003EB83032A685200B3FBF2F3DCE7DB006C
:101FEC003233044AA2FB0323C3F342130B43E7E748
:101FFC00003801401F85EB5129B183899BB243F412
:10200C0000538381704783899BB223F400539BB2A6
:10201C0083817047C1F3421C01F01F01012303FAB5
:10202C0001F19C4508D0BCF1020F07D014303AB135
:10203C0003681943016070470C30F8E71030F6E77D
:10204C00036823EA010101607047C1F30801818034
:10205C0070478088C0F3080070470388194201D08C
:10206C000120704700207047C1F3421201F01F0C91
:10207C00012303FA0CF3012A0FD0022A11D0828A11
:10208C0092B21340090A012202FA01F1028892B2BB
:10209C000A4053B15AB900207047828992B213405A
:1020AC00F0E7028A92B21340ECE70020704701205F
:1020BC007047090A01238B409BB2DB439BB2038020
:1020CC0070470000C378FBB1154BDA68D243C2F3FA
:1020DC000222C2F1040C0F2323FA02F2417801FA16
:1020EC000CF1837813400B431B010278DBB20D49D2
:1020FC000A4482F80033037803F01F005B090122C5
:10210C00824041F823207047037803F01F015B09DC
:10211C0001228A402033034941F82320704700BF35
:10212C0000ED00E000E100E0042806D04FF0E022D2
:10213C00136923F00403136170474FF0E022136915
:10214C0043F0040313617047002103E00A4B5B5812
:10215C004350043109480A4B42189A42F6D3094AB3
:10216C0002E0002342F8043B074B9A42F9D3FFF7F5
:10217C00B7FAFEF711FB7047B421000800000020ED
:10218C00140000201400002060030020FEE7000073
:10219C00F8B500BFF8BC08BC9E467047F8B500BF48
:0821AC00F8BC08BC9E46704718
:1021B40002040608000000000102030401020304F3
:0421C40006070809F9
:040000050800010CE2
:00000001FF
